:10410000C30341CD0741C92100427EFE55CA364155
:10411000FE61CA4B41FE62CA5541FE63CA5E41FE62
:1041200064CA5E41FE66CA3541FE70CA6C41C26710
:104130004123C30A41C92356235EDB400738FB7A7B
:10414000D340DD7E007BD341C33141235E2356CD76
:104150007841C3314111DF02CD7841C33141117241
:1041600003CD7841C33141FE80D23141E60F3C1688
:10417000005FCD7841C33141CD81411B7AB320F836
:0B418000C90101000B0079B020FAC952
:00000001FF
